:020000040800F2
:1000000000500020510C00082D03000831030008A7
:1000100035030008390300083D0300080000000014
:100020000000000000000000000000004103000884
:100030004503000800000000490300084D030008C4
:10004000990C0008990C0008990C0008990C0008FC
:10005000990C0008990C0008990C0008990C0008EC
:10006000990C0008990C0008990C0008990C0008DC
:10007000990C0008990C0008990C0008990C0008CC
:10008000990C0008990C0008990C0008990C0008BC
:10009000990C0008990C0008990C0008990C0008AC
:1000A000990C0008990C0008990C0008990C00089C
:1000B000990C0008990C0008990C0008990C00088C
:1000C000990C0008990C0008990C0008990C00087C
:1000D000990C0008990C0008990C0008990C00086C
:1000E000990C0008990C0008990C00080000000009
:1000F0000000000000000000000000000000000000
:0C01000000000000000000005FF808F1A3
:10010C000348044B834202D0034B03B1184770479A
:10011C000C0000200C0000200000000005480649DF
:10012C000B1AD90F01EBA301491002D0034B03B1F9
:10013C00184770470C0000200C0000200000000045
:10014C0010B5064C237843B9FFF7DAFF044B13B113
:10015C000448AFF300800123237010BD0C00002075
:10016C00000000009C0C000808B5044B1BB10449AE
:10017C000448AFF30080BDE80840CFE70000000062
:10018C00100000209C0C000870B50D4E0D4D761B18
:10019C00B61006D00024013455F8043B9847A6420B
:1001AC00F9D1094E094D00F073FD761BB61006D03F
:1001BC000024013455F8043B9847A642F9D170BD90
:1001CC00F40C0008F40C0008F80C0008F40C0008FF
:1001DC00F0B4860746D0541E002A3CD0CAB203465F
:1001EC0002E014F1FF3436D303F8012B9D07F8D14C
:1001FC00032C29D9CDB245EA05250F2C45EA054536
:10020C0033D9A4F11006360903F1200707EB0617C2
:10021C0003F1100242E9045542E902551032BA4288
:10022C00F8D1721C14F00C0F03EB021204F00F0641
:10023C0013D0331F23F003030433134442F8045B3D
:10024C009342FBD106F003042CB1C9B21C4403F851
:10025C00011B9C42FBD1F0BC704734461346002C6A
:10026C00F3D1F8E714460346C2E71A462646E0E700
:10027C00D0B590B02422002107A8FFF7A9FF0224D3
:10028C0000230126102706A8CDE90033CDE902335F
:10029C00CDE90A670493069400F06CF808B172B6C5
:1002AC00FEE701460F260027002200236846CDE911
:1002BC000067CDE90223049100F05CFA08B172B634
:1002CC00FEE700F05BFC00F037FC2146012000F05B
:1002DC0075FC0421012000F071FC10B0D0BD00BFF2
:1002EC004FF4813240F2031300B583B00092ADF8A5
:1002FC00043000F031FBFFF7BBFF684600F080FCD8
:10030C00064C684600F086FC204600F01DFC684652
:10031C0000F08CFC204600F017FCF2E740420F0086
:10032C00FEE700BFFEE700BFFEE700BFFEE700BF31
:10033C00FEE700BF704700BF704700BF704700BFAB
:10034C0000F01CBB0A4B82B09A6942F001029A6120
:10035C009A6902F001020092009ADA6942F0805226
:10036C00DA61DB6903F080530193019B02B07047A3
:10037C0000100240002800F0C3812DE9F041036811
:10038C000446DD0782B035D5A6494A6802F00C0256
:10039C00042A00F0EF804A6802F00C02082A00F0F0
:1003AC00E5806368B3F5803F10D0002B00F00D8121
:1003BC00B3F5A02F00F08F819A4B1A6822F480328B
:1003CC001A601A6822F480221A6004E0954A1368B5
:1003DC0043F48033136000F0DDFA924E054605E0DD
:1003EC0000F0D8FA401B642800F2EB8033689A03C3
:1003FC00F6D523689F0728D58A4A516811F00C0F4F
:10040C0000F08E80516801F00C01082900F0848006
:10041C002369002B00F025810122834B814E1A6049
:10042C0000F0B8FA054605E000F0B4FA401B0228CB
:10043C0000F2C78033689807F6D53368626923F0F9
:10044C00F80343EAC203336023681A071FD45D071D
:10045C0041D5744BDA69D0007DD50025734B1A68F1
:10046C00D10540F19D80E368012B00F00B81002B3E
:10047C0000F0C580052B6B4B1A6A00F0398122F015
:10048C0001021A621A6A22F004021A62FFE0A369DE
:10049C00002B50D00122664B624E1A6000F07AFAA3
:1004AC00054605E000F076FA401B022800F2898030
:1004BC00736A9B07F6D55F4B5F4A1B68A2FB03234D
:1004CC005B0A019300BF019B5A1E0192002BF9D1CC
:1004DC0023685D07BDD4E069D0B1524D6A6802F063
:1004EC000C02082A00F0E68002284FF00001534A63
:1004FC0000F00881116000F04DFA2C46054604E02E
:10050C0000F048FA401B02285BD823689B01F7D403
:10051C00002002B0BDE8F0815268D6033FF578AFF9
:10052C00404A126895072FD52269012A2CD0012048
:10053C0002B0BDE8F0813E4A3A4E136000F02AFA50
:10054C00054604E000F026FA401B022839D8736AED
:10055C009F07F7D4BCE7DA69012542F08052DA61D3
:10056C00DB6903F080530093009B77E74A68D00364
:10057C007FF517AF2B4A126891037FF53BAF62688A
:10058C00002A7FF437AFD2E7264960690A6822F067
:10059C00F80242EAC0020A601A077FF558AF76E704
:1005AC001A681F4642F480721A6000F0F3F906468E
:1005BC003B68DA053FF557AF00F0ECF9801B642877
:1005CC00F6D9032002B0BDE8F08103F1804303F5B6
:1005DC0004331A681E4622F480321A601A6822F418
:1005EC0080221A6000F0D6F9054604E000F0D2F93A
:1005FC00401B6428E5D833689B03F7D4F9E603F174
:10060C00804303F504331A6A1F4622F001021A6272
:10061C001A6A41F2883822F004021A6200F0BAF920
:10062C00064612E0001002400000424200700040FA
:10063C008004424208000020D34D62106000424208
:10064C0000F0A8F9801B4045BBD83B6A9807F7D44B
:10065C00002D3FF440AF444AD36923F08053D3615B
:10066C0039E7424A404E136000F094F9054604E025
:10067C0000F090F9401B0228A3D833689907F7D4EF
:10068C002368E2E6384A136A43F00103136200F070
:10069C0081F941F288380646334F04E000F07AF9CC
:1006AC00801B40458DD83B6A9B07F7D5002D3FF446
:1006BC0012AFD0E701283FF42CAF6B68226A03F429
:1006CC00803191427FF433AF606A03F47013181ACF
:1006DC0018BF01201DE703F18043A3F53C331A68D2
:1006EC0042F480221A601A6842F480321A6072E670
:1006FC0042F004021A621A6A42F001021A62C6E758
:10070C0001207047116000F045F9064605E000F045
:10071C0041F9801B02283FF654AF2B689901F6D49F
:10072C00236AB3F5803F05D16A68A16822F40032D0
:10073C000A436A6001200C4D616A6A680B4322F41B
:10074C0074120B4913436B60086000F023F92C46BC
:10075C00054605E000F01EF9401B02283FF631AFBC
:10076C0023689A01F6D5D3E60010024000004242FD
:10077C0060004242002800F0AF805D4A2DE9F04154
:10078C001368044603F007038B420D4686B00DD266
:10079C00136823F007030B431360136803F007037C
:1007AC008B4203D0012006B0BDE8F0812368980786
:1007BC0014D5590704D54F494A6842F4E0624A609F
:1007CC001A0704D54B494A6842F460524A604949B9
:1007DC00A0684A6822F0F00202434A60DB0720D589
:1007EC006268444B012A1B6878D0022A71D09807A2
:1007FC00D8D5404E41F28838736823F00303134375
:10080C00736000F0C7F8074604E000F0C3F8C01BA3
:10081C00404566D87368626803F00C03B3EB820F33
:10082C00F3D1334A136803F00703AB4209D91368B9
:10083C0023F007032B431360136803F00703AB4249
:10084C00B0D12368590706D52A49E0684A6822F4D2
:10085C00E06202434A601A0707D5264A21695368A9
:10086C0023F4605343EAC103536040F20122224B4C
:10087C0006ACADF804200FCB04E90F001D494A6803
:10088C0002F00C03082B11D01C4B1A4A1C4852685E
:10089C001C49C2F30312805C1B4AC34008681360F6
:1008AC0000F036F8002006B0BDE8F081C2F38343B7
:1008BC00234413F8100CD30315D54A680F4BC2F31D
:1008CC00404203FB00F3224412F8142CB3FBF2F366
:1008DC00DBE79E018DD465E7012070479F0388D428
:1008EC0060E703205FE7094B03FB00F3CDE700BF94
:1008FC000020024000100240B40C000800127A00E4
:10090C00C80C0008040000200800002000093D006D
:10091C0038B54FF47A730D4A054611780C4AB3FB7F
:10092C00F1F31268B2FBF3F000F084F808B90F2D64
:10093C0001D9012038BD0446024629464FF0FF304C
:10094C0000F040F8034B20461D6038BD000000202D
:10095C000800002004000020074A08B51368032093
:10096C0043F01003136000F01BF80F20FFF7D0FFCB
:10097C00FFF7E8FC002008BD00200240034A044BAE
:10098C0011681B780B441360704700BF28000020CF
:10099C0000000020014B1868704700BF28000020A1
:1009AC004FF6FF01064A0302D06803F4E0630840E7
:1009BC00034343F0BF6343F40033D360704700BF7D
:1009CC0000ED00E0194B30B4DB68C3F30223C3F134
:1009DC000705042D03F1040428BF0425062C19D99E
:1009EC004FF0FF34033B9C4022EA04024FF0FF34EB
:1009FC00AC4021EA04019940002841EA02010CDBD9
:100A0C00090100F16040C9B200F5614080F80013A3
:100A1C0030BC704700221346E8E7054B00F00F008E
:100A2C000901C9B20344197630BC704700ED00E0EF
:100A3C00FCEC00E00138B0F1807F0DD230B4F02531
:100A4C0000220721054B064C586084F823501046B1
:100A5C0030BC9A60196070470120704710E000E0CC
:100A6C0000ED00E0704700BF10B30278022A1DD8D9
:100A7C0043780F2B1AD810B48178182928D008295C
:100A8C002ED01B4850F82200072B4FF00F0410D823
:100A9C009A000368944023EA04030360046801FA93
:100AAC0002F323430360012010BC70470020704701
:100ABC007047083BDBB242689B009C4022EA040270
:100ACC004260426801FA03F3134343600120EBE7F1
:100ADC00012407499C4051F8220008210461D3E706
:100AEC00012403489C4050F822004461CCE700BF2D
:100AFC00D80C000890B10378022B0DD842780F2A3D
:100B0C000AD801290CD0012091B90A4900FA02F245
:100B1C0051F823305A61704700207047012070470C
:100B2C00044801FA02F250F8233008461A61704763
:100B3C00704700BFD80C0008024A136823F0040366
:100B4C001360704710E000E0B0F1807F12D20A4BC6
:100B5C001A465860196841F0010119601368DB03EB
:100B6C00FCD500211368012023F0010313605160B0
:100B7C00916070470020704710E000E00E4B1A4661
:100B8C00596821F080015960596821F480615960DD
:100B9C00596821F400515960596821F001015960DC
:100BAC00596821F002015960196841F0010119607E
:100BBC0013689B07FCD57047001002401F2904D80E
:100BCC00012814D002280AD008B100207047012057
:100BDC000A4B00FA01F15A6911435961704701201F
:100BEC00064B00FA01F1DA691143D9617047034BE6
:100BFC0000FA01F19A6911439961704700100240A3
:100C0C0010B50446FFF730FFE01CBDE81040FFF7BD
:100C1C002BBF00BF10B5044600210330FFF76AFF5D
:100C2C002046BDE810400121FFF764BF10B5044613
:100C3C000021FFF75FFFE01C0121BDE81040FFF72A
:100C4C0059BF00BF0C480D490D4A002302E0D4588F
:100C5C00C4500433C4188C42F9D30A4A0A4C0023FA
:100C6C0001E013600432A242FBD3FFF7FBFEFFF757
:100C7C008BFAFFF735FB7047000000200C000020BA
:100C8C00FC0C00080C0000202C000020FEE70000EB
:100C9C00F8B500BFF8BC08BC9E467047F8B500BF5D
:080CAC00F8BC08BC9E4670472D
:100CB40002030405060708090A0B0C0D0E0F101099
:100CC4000000000000000000000000000102030416
:100CD4000607080900080140000C0140001001400B
:100CE4000014014000180140000000000000000052
:040CF400750100087E
:040CF8004D010008A2
:0C0CFC0001000000100000000024F400C3
:0400000508000C5192
:00000001FF
