:020000040800F2
:1000000000500020110D00084103000843030008C0
:1000100045030008470300084903000800000000EA
:100020000000000000000000000000004B0300087A
:100030004D030008000000004F03000851030008B2
:10004000590D0008590D0008590D0008590D0008F8
:10005000590D0008590D0008590D0008590D0008E8
:10006000590D0008590D0008590D0008590D0008D8
:10007000590D0008590D0008590D0008590D0008C8
:10008000590D0008590D0008590D0008590D0008B8
:10009000590D0008590D0008590D0008590D0008A8
:1000A000590D0008590D0008590D0008590D000898
:1000B000590D0008590D0008590D0008590D000888
:1000C000590D0008590D0008590D0008590D000878
:1000D000590D0008590D0008590D0008590D000868
:1000E000590D0008590D0008590D000800000000C6
:1000F0000000000000000000000000000000000000
:0C01000000000000000000005FF808F1A3
:10010C000348044B834202D0034B03B1184770479A
:10011C000C0000200C0000200000000005480649DF
:10012C000B1AD90F01EBA301491002D0034B03B1F9
:10013C00184770470C0000200C0000200000000045
:10014C0010B5064C237843B9FFF7DAFF044B13B113
:10015C000448AFF300800123237010BD0C00002075
:10016C00000000005C0D000808B5044B1BB10449ED
:10017C000448AFF30080BDE80840CFE70000000062
:10018C00100000205C0D000870B50D4E0D4D761B57
:10019C00B61006D00024013455F8043B9847A6420B
:1001AC00F9D1094E094D00F0D3FD761BB61006D0DF
:1001BC000024013455F8043B9847A642F9D170BD90
:1001CC00B40D0008B40D0008B80D0008B40D0008FB
:1001DC00F0B4860746D0541E002A3CD0CAB203465F
:1001EC0002E014F1FF3436D303F8012B9D07F8D14C
:1001FC00032C29D9CDB245EA05250F2C45EA054536
:10020C0033D9A4F11006360903F1200707EB0617C2
:10021C0003F1100242E9045542E902551032BA4288
:10022C00F8D1721C14F00C0F03EB021204F00F0641
:10023C0013D0331F23F003030433134442F8045B3D
:10024C009342FBD106F003042CB1C9B21C4403F851
:10025C00011B9C42FBD1F0BC704734461346002C6A
:10026C00F3D1F8E714460346C2E71A462646E0E700
:10027C0072B6FEE700B591B02422002107A8FFF763
:10028C00A7FF002301930293039304930593022386
:10029C00069301230A9310230B9306A800F084F80D
:1002AC00C8B90F2301930021029103910491059188
:1002BC0001A800F0B7FA80B900F0EAFC00F084FC69
:1002CC000221012000F0A4FC0421012000F0A0FC7C
:1002DC0011B05DF804FBFFF7CBFFFFF7C9FF00007F
:1002EC0000B583B000228DF8002002238DF8013078
:1002FC0001238DF802308DF8032003228DF80420A1
:10030C008DF8053000F06AFBFFF7B4FF684600F08B
:10031C00DBFC684600F0E0FC054C204600F05CFC81
:10032C00684600F0E4FC204600F056FCF1E700BF04
:10033C0040420F00FEE7FEE7FEE7FEE7FEE77047F0
:10034C007047704708B500F05BFB08BD82B00A4BE4
:10035C009A6942F001029A619A6902F001020092D4
:10036C00009ADA6942F08052DA61DB6903F080535B
:10037C000193019B02B070470010024082B0084B01
:10038C001B68084AA2FB03235B0A00FB03F30193DF
:10039C0000BF019B5A1E0192002BF9D102B070478D
:1003AC0008000020D34D6210002800F0F18170B5D8
:1003BC0082B00446036813F0010F2CD0AA4B5B6883
:1003CC0003F00C03042B1DD0A74B5B6803F00C034C
:1003DC00082B12D06368B3F5803F41D0002B55D168
:1003EC0003F1804303F504331A6822F480321A6057
:1003FC001A6822F480221A6037E09B4B5B6813F476
:10040C00803FE7D0984B1B6813F4003F03D0636820
:10041C00002B00F0BF81236813F0020F75D0924BB4
:10042C005B6813F00C0F5FD08F4B5B6803F00C0311
:10043C00082B54D02369002B00F089808B4B0122B0
:10044C001A6000F0E9FA0546874B1B6813F0020F9F
:10045C0074D100F0E1FA401B0228F5D903209EE18B
:10046C00814A136843F480331360636843B300F02C
:10047C00D3FA05467C4B1B6813F4003FCBD100F03C
:10048C00CBFA401B6428F5D9032088E1B3F5A02FE3
:10049C0009D0754B1A6822F480321A601A6822F45B
:1004AC0080221A60E1E703F18043A3F53C331A681C
:1004BC0042F480221A601A6842F480321A60D4E73F
:1004CC0000F0AAFA0546684B1B6813F4003FA2D053
:1004DC0000F0A2FA401B6428F5D903205FE1624BBF
:1004EC005B6813F4803FA5D15F4B1B6813F0020FC0
:1004FC0003D02369012B40F04F815B4A136823F032
:10050C00F803616943EAC1031360236813F0080F11
:10051C0032D0A369002B45D0554B01221A6000F054
:10052C007BFA0546504B5B6A13F0020F21D100F0A9
:10053C0073FA401B0228F5D9032030E14A4A1368AC
:10054C0023F0F803616943EAC1031360DDE7474B0D
:10055C0000221A6000F060FA0546434B1B6813F04A
:10056C00020FD2D000F058FA401B0228F5D9032014
:10057C0015E10120FFF702FF236813F0040F00F0D0
:10058C009780394BDB6913F0805F1DD1364BDA69EC
:10059C0042F08052DA61DB6903F080530193019BD6
:1005AC00012512E0324B00221A6000F035FA0546A4
:1005BC002D4B5B6A13F0020FDED000F02DFA401BBE
:1005CC000228F5D90320EAE000252A4B1B6813F416
:1005DC00807F11D0E368012B22D0002B38D103F19E
:1005EC00804303F504331A6A22F001021A621A6A74
:1005FC0022F004021A6218E01E4A136843F4807356
:10060C00136000F009FA06461A4B1B6813F4807F3E
:10061C00E0D100F001FA801B6428F5D90320BEE07C
:10062C00114A136A43F001031362E36873B300F0D9
:10063C00F3F906460C4B1B6A13F0020F37D100F08E
:10064C00EBF9801B41F288339842F3D90320A6E0E2
:10065C00052B11D0044B1A6A22F001021A621A6A95
:10066C0022F004021A62E0E700100240000042424D
:10067C0080044242007000404D4B1A6A42F0040262
:10068C001A621A6A42F001021A62CEE700F0C4F94B
:10069C000646474B1B6A13F0020F08D000F0BCF95A
:1006AC00801B41F288339842F3D9032077E0E5B9F7
:1006BC00E369002B72D03E4A526802F00C02082A01
:1006CC0056D0022B17D03B4B00221A6000F0A4F935
:1006DC000446374B1B6813F0007F47D000F09CF9A1
:1006EC00001B0228F5D9032059E0314AD36923F0C5
:1006FC008053D361DCE72F4B00221A6000F08CF999
:10070C0005462B4B1B6813F0007F06D000F084F9D4
:10071C00401B0228F5D9032041E0236AB3F5803F42
:10072C001AD023494B6823F47413226A606A02437B
:10073C0013434B601F4B01221A6000F06DF9044605
:10074C001B4B1B6813F0007F0ED100F065F9001BEA
:10075C000228F5D9032022E0154A536823F400330C
:10076C00A1680B435360DCE7002018E0002016E082
:10077C00012B16D00E4B5B6803F48031226A914238
:10078C0011D103F47013626A93420ED1002006E07B
:10079C0001207047012002E0012000E0002002B09F
:1007AC0070BD0120FBE70120F9E70120F7E700BF4E
:1007BC00001002406000424286B0164B0FCB0DF188
:1007CC00180C0CE90F0040F20123ADF80430124B69
:1007DC005B6803F00C02082A02D0104806B0704780
:1007EC00C3F38342624412F8102C13F4803F0CD0F4
:1007FC00094B5B68C3F34043634413F8143C07484C
:10080C0000FB02F0B0FBF3F0E8E7054800FB02F058
:10081C00E4E700BF740D00080010024000127A00DB
:10082C0000093D00002800F0A08070B50D4604467C
:10083C00524B1B6803F007038B420BD24F4A1368D1
:10084C0023F007030B431360136803F007038B4279
:10085C0040F08D80236813F0020F17D013F0040FB3
:10086C0004D0474A536843F4E0635360236813F0A1
:10087C00080F04D0424A536843F460535360404A13
:10088C00536823F0F003A1680B435360236813F003
:10089C00010F31D06368012B20D0022B25D0384AB0
:1008AC00126812F0020F64D035494A6822F0030234
:1008BC0013434B6000F0B0F80646314B5B6803F015
:1008CC000C036268B3EB820F16D000F0A5F8801B06
:1008DC0041F288339842F0D9032045E0284A126847
:1008EC0012F4003FE0D101203EE0254A126812F0DC
:1008FC00007FD9D1012037E0204B1B6803F00703A0
:10090C00AB420AD91D4A136823F007032B4313602B
:10091C00136803F00703AB422DD1236813F0040FC7
:10092C0006D0174A536823F4E063E1680B43536025
:10093C00236813F0080F07D0114A536823F460534F
:10094C00216943EAC1035360FFF736FF0C4B5B6828
:10095C00C3F303130B4AD35CD8400B4B18600B4BFF
:10096C00186800F015F8002070BD012070470120B8
:10097C00FAE70120F8E70120F6E700BF002002406B
:10098C0000100240880D0008080000200400002020
:10099C0010B504460E4B18784FF47A73B3FBF0F392
:1009AC000C4A1068B0FBF3F000F082F868B90F2C19
:1009BC0001D901200AE0002221464FF0FF3000F05F
:1009CC0043F8054B1C60002000E0012010BD00BF67
:1009DC0000000020080000200400002008B5074A91
:1009EC00136843F010031360032000F01BF80F2072
:1009FC00FFF7CEFFFFF7AAFC002008BD0020024045
:100A0C00034A1168034B1B780B441360704700BFFB
:100A1C002800002000000020014B1868704700BF20
:100A2C0028000020074AD36823F4E0631B041B0C46
:100A3C00000200F4E060034343F0BF6343F400336F
:100A4C00D360704700ED00E030B4174BDB68C3F3A4
:100A5C000223C3F10704042C28BF04241D1D062DFA
:100A6C0018D9033B4FF0FF3505FA04F421EA0401D1
:100A7C00994005FA03F322EA0303194300280BDB20
:100A8C000901C9B200F1604000F5614080F8001323
:100A9C0030BC70470023E5E700F00F000901C9B234
:100AAC00024B1954F4E700BF00ED00E014ED00E038
:100ABC000138B0F1807F0AD2064B5860064AF0210B
:100ACC0082F823100020986007221A6070470120DA
:100ADC00704700BF10E000E000ED00E07047000040
:100AEC00002842D0034680785A781B78022B3ED8D7
:100AFC000F2A3ED810B4182815D008281BD0072A66
:100B0C0020D81D4951F823301C6891000F228A40CF
:100B1C0024EA02021A601C6800FA01F222431A60ED
:100B2C00012010BC7047144951F823000121914059
:100B3C0001610820E3E7104951F82340012191405D
:100B4C006161DCE7083AD2B20B4951F8233059689D
:100B5C0092000F24944021EA04015960596800FA6C
:100B6C0002F20A435A600120DBE7002070470020A4
:100B7C0070470020704700BF980D0008C8B102787C
:100B8C00022A18D843780F2B17D8012908D0B1B9ED
:100B9C000C4951F82220012000FA03F353617047ED
:100BAC00084850F82200012202FA03F303610846B8
:100BBC0070470120704700207047002070470120CB
:100BCC00704700BF980D0008024A136823F0040315
:100BDC001360704710E000E0B0F1807F14D20B4B33
:100BEC0058601A6842F001021A60084B1B6813F433
:100BFC00803FFAD0054B1A6822F001021A600022DD
:100C0C005A609A60012070470020704710E000E0A5
:100C1C001F2920D801280CD0022814D008B100209C
:100C2C0070470E4A5369012000FA01F119435161D2
:100C3C00704710B4094CA369012202FA01F119435F
:100C4C00A16110BC7047054AD369012000FA01F17B
:100C5C001943D16170470020704700BF001002405B
:100C6C00024A536823F0800353607047001002401F
:100C7C00024A536823F480635360704700100240AB
:100C8C00024A536823F4005353607047001002402B
:100C9C0008B5FFF7E5FFFFF7EBFFFFF7F1FF094B97
:100CAC005A6822F001025A605A6822F002025A6015
:100CBC001A6842F001021A60024B1B6813F0020F13
:100CCC00FAD008BD0010024010B50446FFF708FF2B
:100CDC00E01CFFF705FF10BD10B5044600210330E2
:100CEC00FFF74CFF01212046FFF748FF10BD10B560
:100CFC0004460021FFF742FF0121E01CFFF73EFFF5
:100D0C0010BD00000C480D490D4A002302E0D458D8
:100D1C00C4500433C4188C42F9D30A4A0A4C002339
:100D2C0001E013600432A242FBD3FFF7D7FEFFF7BA
:100D3C002BFAFFF7D5FA7047000000200C000020BA
:100D4C00BC0D00080C0000202C000020FEE7000069
:100D5C00F8B500BFF8BC08BC9E467047F8B500BF9C
:080D6C00F8BC08BC9E4670476C
:100D740002030405060708090A0B0C0D0E0F1010D8
:100D84000000000000000000000000000102030455
:100D94000607080900080140000C0140001001404A
:100DA4000014014000180140000000000000000091
:040DB40075010008BD
:040DB8004D010008E1
:0C0DBC0001000000100000000024F40002
:0400000508000D11D1
:00000001FF
